{
  "abi": [
    {
      "inputs": [],
      "stateMutability": "nonpayable",
      "type": "constructor"
    },
    {
      "anonymous": false,
      "inputs": [
        {
          "indexed": false,
          "internalType": "bool",
          "name": "start",
          "type": "bool"
        }
      ],
      "name": "CityStarted",
      "type": "event"
    },
    {
      "anonymous": false,
      "inputs": [
        {
          "indexed": false,
          "internalType": "address",
          "name": "_adress",
          "type": "address"
        },
        {
          "indexed": false,
          "internalType": "uint256",
          "name": "tokenId",
          "type": "uint256"
        }
      ],
      "name": "LeftCitizen",
      "type": "event"
    },
    {
      "anonymous": false,
      "inputs": [
        {
          "indexed": false,
          "internalType": "string",
          "name": "message",
          "type": "string"
        }
      ],
      "name": "Log",
      "type": "event"
    },
    {
      "anonymous": false,
      "inputs": [
        {
          "indexed": false,
          "internalType": "address",
          "name": "_adress",
          "type": "address"
        },
        {
          "indexed": false,
          "internalType": "uint256",
          "name": "passportId",
          "type": "uint256"
        }
      ],
      "name": "NewCitizen",
      "type": "event"
    },
    {
      "anonymous": false,
      "inputs": [
        {
          "indexed": false,
          "internalType": "address",
          "name": "_adress",
          "type": "address"
        }
      ],
      "name": "NewCitizenRequest",
      "type": "event"
    },
    {
      "anonymous": false,
      "inputs": [
        {
          "indexed": false,
          "internalType": "string",
          "name": "cityname",
          "type": "string"
        },
        {
          "indexed": false,
          "internalType": "string",
          "name": "symbol",
          "type": "string"
        }
      ],
      "name": "NewcityStarted",
      "type": "event"
    },
    {
      "anonymous": false,
      "inputs": [
        {
          "indexed": true,
          "internalType": "address",
          "name": "previousOwner",
          "type": "address"
        },
        {
          "indexed": true,
          "internalType": "address",
          "name": "newOwner",
          "type": "address"
        }
      ],
      "name": "OwnershipTransferred",
      "type": "event"
    },
    {
      "anonymous": false,
      "inputs": [
        {
          "indexed": false,
          "internalType": "address",
          "name": "account",
          "type": "address"
        }
      ],
      "name": "Paused",
      "type": "event"
    },
    {
      "anonymous": false,
      "inputs": [
        {
          "indexed": false,
          "internalType": "uint256",
          "name": "population",
          "type": "uint256"
        }
      ],
      "name": "PopulationState",
      "type": "event"
    },
    {
      "anonymous": false,
      "inputs": [
        {
          "indexed": false,
          "internalType": "address",
          "name": "account",
          "type": "address"
        }
      ],
      "name": "Unpaused",
      "type": "event"
    },
    {
      "inputs": [
        {
          "internalType": "address",
          "name": "address_",
          "type": "address"
        },
        {
          "internalType": "string",
          "name": "_name",
          "type": "string"
        },
        {
          "internalType": "string",
          "name": "_firstname",
          "type": "string"
        }
      ],
      "name": "addToCity",
      "outputs": [],
      "stateMutability": "nonpayable",
      "type": "function"
    },
    {
      "inputs": [
        {
          "internalType": "address",
          "name": "_address",
          "type": "address"
        }
      ],
      "name": "agreeCitizenship",
      "outputs": [
        {
          "internalType": "uint256",
          "name": "",
          "type": "uint256"
        }
      ],
      "stateMutability": "nonpayable",
      "type": "function"
    },
    {
      "inputs": [],
      "name": "cityname",
      "outputs": [
        {
          "internalType": "string",
          "name": "",
          "type": "string"
        }
      ],
      "stateMutability": "view",
      "type": "function"
    },
    {
      "inputs": [
        {
          "internalType": "address",
          "name": "_citizen_address",
          "type": "address"
        }
      ],
      "name": "getCitizenInfos",
      "outputs": [
        {
          "components": [
            {
              "internalType": "string",
              "name": "name",
              "type": "string"
            },
            {
              "internalType": "string",
              "name": "firstname",
              "type": "string"
            },
            {
              "internalType": "string",
              "name": "citizenship",
              "type": "string"
            },
            {
              "internalType": "uint256",
              "name": "startTime",
              "type": "uint256"
            },
            {
              "internalType": "uint256",
              "name": "endTime",
              "type": "uint256"
            },
            {
              "internalType": "uint256",
              "name": "passportId",
              "type": "uint256"
            },
            {
              "internalType": "address",
              "name": "citizenAddress",
              "type": "address"
            }
          ],
          "internalType": "struct City.CitizenIdcard",
          "name": "",
          "type": "tuple"
        }
      ],
      "stateMutability": "view",
      "type": "function"
    },
    {
      "inputs": [
        {
          "internalType": "address",
          "name": "_citizen_address",
          "type": "address"
        }
      ],
      "name": "getCitizenStatut",
      "outputs": [
        {
          "internalType": "string",
          "name": "",
          "type": "string"
        }
      ],
      "stateMutability": "view",
      "type": "function"
    },
    {
      "inputs": [],
      "name": "getCityName",
      "outputs": [
        {
          "internalType": "string",
          "name": "",
          "type": "string"
        }
      ],
      "stateMutability": "view",
      "type": "function"
    },
    {
      "inputs": [],
      "name": "getEtatCivilAddress",
      "outputs": [
        {
          "internalType": "address",
          "name": "",
          "type": "address"
        }
      ],
      "stateMutability": "view",
      "type": "function"
    },
    {
      "inputs": [],
      "name": "getPassportAddress",
      "outputs": [
        {
          "internalType": "address",
          "name": "",
          "type": "address"
        }
      ],
      "stateMutability": "view",
      "type": "function"
    },
    {
      "inputs": [],
      "name": "getPassportName",
      "outputs": [
        {
          "internalType": "string",
          "name": "",
          "type": "string"
        }
      ],
      "stateMutability": "view",
      "type": "function"
    },
    {
      "inputs": [],
      "name": "getPassportSymbol",
      "outputs": [
        {
          "internalType": "string",
          "name": "",
          "type": "string"
        }
      ],
      "stateMutability": "view",
      "type": "function"
    },
    {
      "inputs": [
        {
          "internalType": "address",
          "name": "_citizen_address",
          "type": "address"
        }
      ],
      "name": "getRegistryInfos",
      "outputs": [
        {
          "components": [
            {
              "internalType": "string",
              "name": "name",
              "type": "string"
            },
            {
              "internalType": "string",
              "name": "firstname",
              "type": "string"
            },
            {
              "internalType": "string",
              "name": "citizenship",
              "type": "string"
            },
            {
              "internalType": "uint256",
              "name": "startTime",
              "type": "uint256"
            },
            {
              "internalType": "uint256",
              "name": "endTime",
              "type": "uint256"
            },
            {
              "internalType": "uint256",
              "name": "passportId",
              "type": "uint256"
            },
            {
              "internalType": "address",
              "name": "citizenAddress",
              "type": "address"
            }
          ],
          "internalType": "struct City.CitizenIdcard",
          "name": "",
          "type": "tuple"
        }
      ],
      "stateMutability": "view",
      "type": "function"
    },
    {
      "inputs": [
        {
          "internalType": "address",
          "name": "_address",
          "type": "address"
        }
      ],
      "name": "isCitizen",
      "outputs": [
        {
          "internalType": "bool",
          "name": "",
          "type": "bool"
        }
      ],
      "stateMutability": "view",
      "type": "function"
    },
    {
      "inputs": [
        {
          "internalType": "string",
          "name": "_name",
          "type": "string"
        },
        {
          "internalType": "string",
          "name": "_firstname",
          "type": "string"
        }
      ],
      "name": "joinCity",
      "outputs": [],
      "stateMutability": "nonpayable",
      "type": "function"
    },
    {
      "inputs": [],
      "name": "name",
      "outputs": [
        {
          "internalType": "string",
          "name": "",
          "type": "string"
        }
      ],
      "stateMutability": "view",
      "type": "function"
    },
    {
      "inputs": [],
      "name": "owner",
      "outputs": [
        {
          "internalType": "address",
          "name": "",
          "type": "address"
        }
      ],
      "stateMutability": "view",
      "type": "function"
    },
    {
      "inputs": [],
      "name": "paused",
      "outputs": [
        {
          "internalType": "bool",
          "name": "",
          "type": "bool"
        }
      ],
      "stateMutability": "view",
      "type": "function"
    },
    {
      "inputs": [
        {
          "internalType": "address",
          "name": "",
          "type": "address"
        }
      ],
      "name": "population",
      "outputs": [
        {
          "internalType": "bool",
          "name": "",
          "type": "bool"
        }
      ],
      "stateMutability": "view",
      "type": "function"
    },
    {
      "inputs": [],
      "name": "renounceOwnership",
      "outputs": [],
      "stateMutability": "nonpayable",
      "type": "function"
    },
    {
      "inputs": [
        {
          "internalType": "address",
          "name": "_address",
          "type": "address"
        }
      ],
      "name": "revokeCitizenship",
      "outputs": [],
      "stateMutability": "nonpayable",
      "type": "function"
    },
    {
      "inputs": [],
      "name": "started",
      "outputs": [
        {
          "internalType": "bool",
          "name": "",
          "type": "bool"
        }
      ],
      "stateMutability": "view",
      "type": "function"
    },
    {
      "inputs": [],
      "name": "symbol",
      "outputs": [
        {
          "internalType": "string",
          "name": "",
          "type": "string"
        }
      ],
      "stateMutability": "view",
      "type": "function"
    },
    {
      "inputs": [],
      "name": "totalPopulation",
      "outputs": [
        {
          "internalType": "uint256",
          "name": "",
          "type": "uint256"
        }
      ],
      "stateMutability": "view",
      "type": "function"
    },
    {
      "inputs": [
        {
          "internalType": "address",
          "name": "newOwner",
          "type": "address"
        }
      ],
      "name": "transferOwnership",
      "outputs": [],
      "stateMutability": "nonpayable",
      "type": "function"
    },
    {
      "inputs": [
        {
          "internalType": "address",
          "name": "",
          "type": "address"
        }
      ],
      "name": "waitingPopulation",
      "outputs": [
        {
          "internalType": "bool",
          "name": "",
          "type": "bool"
        }
      ],
      "stateMutability": "view",
      "type": "function"
    }
  ],
  "bytecode": {
    "object": "0x600060045560c06040526002608090815261125960f21b60a052600b906200002890826200038a565b50604080518082019091526002815261125960f21b6020820152600c906200005190826200038a565b503480156200005f57600080fd5b506200006b336200022d565b6000805461ffff60a01b19169055600880546001600160a01b03191633179055604080518082018252600b81526a135a5b9a5b5a5cdd185b9d60aa1b60208083019190915282518084019093526005808452644d494e494d60d81b91840191909152909190620000dc83826200038a565b600690620000eb908262000456565b506007620000fa82826200038a565b506005600b60405160200162000112929190620005ba565b604051602081830303815290604052600990816200013191906200038a565b506007600c60405160200162000149929190620005ba565b604051602081830303815290604052600a90816200016891906200038a565b50600854604051600991600a916001600160a01b03909116906200018c90620002d7565b6200019a9392919062000660565b604051809103906000f080158015620001b7573d6000803e3d6000fd5b50600d80546001600160a01b0319166001600160a01b0392909216919091179055620001e26200027d565b60006004556040517faa7f09d39cf4eb5c10b9ea82f903d02a0bc1e932e1373de2a7ffd1e2be39584e906200021d90600590600790620006a2565b60405180910390a15050620006d4565b600080546001600160a01b038381166001600160a01b0319831681178455604051919092169283917f8be0079c531659141344cd1fd0a4f28419497f9722a3daafe3b4186f6b6457e09190a35050565b6000805460ff60a81b1916600160a81b908117918290556040517faa57dc3d1ab1b136a0e5c9630c1b6c22036ab2f6c28b8cc91889b0f03f2dc04292620002cd92900460ff161515815260200190565b60405180910390a1565b612cfb806200206383390190565b634e487b7160e01b600052604160045260246000fd5b600181811c908216806200031057607f821691505b6020821081036200033157634e487b7160e01b600052602260045260246000fd5b50919050565b601f8211156200038557600081815260208120601f850160051c81016020861015620003605750805b601f850160051c820191505b8181101562000381578281556001016200036c565b5050505b505050565b81516001600160401b03811115620003a657620003a6620002e5565b620003be81620003b78454620002fb565b8462000337565b602080601f831160018114620003f65760008415620003dd5750858301515b600019600386901b1c1916600185901b17855562000381565b600085815260208120601f198616915b82811015620004275788860151825594840194600190910190840162000406565b5085821015620004465787850151600019600388901b60f8161c191681555b5050505050600190811b01905550565b81810362000462575050565b6200046e8254620002fb565b6001600160401b03811115620004885762000488620002e5565b6200049981620003b78454620002fb565b6000601f821160018114620004d05760008315620004b75750848201545b600019600385901b1c1916600184901b17845562000538565b600085815260209020601f19841690600086815260209020845b838110156200050c5782860154825560019586019590910190602001620004ea565b50858310156200052b5781850154600019600388901b60f8161c191681555b50505060018360011b0184555b5050505050565b600081546200054e81620002fb565b600182811680156200056957600181146200057f57620005b0565b60ff1984168752821515830287019450620005b0565b8560005260208060002060005b85811015620005a75781548a8201529084019082016200058c565b50505082870194505b5050505092915050565b6000620005d3620005cc83866200053f565b846200053f565b949350505050565b60008154620005ea81620002fb565b8085526020600183811680156200060a5760018114620006255762000655565b60ff1985168884015283151560051b88018301955062000655565b866000528260002060005b858110156200064d5781548a820186015290830190840162000630565b890184019650505b505050505092915050565b606081526000620006756060830186620005db565b8281036020840152620006898186620005db565b91505060018060a01b0383166040830152949350505050565b604081526000620006b76040830185620005db565b8281036020840152620006cb8185620005db565b95945050505050565b61197f80620006e46000396000f3fe608060405234801561001057600080fd5b50600436106101585760003560e01c80636e5f768d116100c3578063c4e415e01161007c578063c4e415e0146102bf578063dae5df0e146102d2578063e49dfda4146102e5578063f2fde38b146102f8578063f3caad031461030b578063fb7e1ee31461031e57600080fd5b80636e5f768d14610260578063715018a6146102835780638da5cb5b1461028b5780639073d46d1461029c57806395d89b41146102a4578063b18d1029146102ac57600080fd5b80632d16475e116101155780632d16475e146101e65780635c975abb146102065780636228283a1461021857806362dca47d1461022d57806362fbbf7f146102505780636b87c5621461025857600080fd5b806306fdde031461015d5780631d0a65871461017b5780631f2698ab1461018357806321069b8e146101a157806325d85e12146101b4578063278b46c4146101c6575b600080fd5b610165610326565b604051610172919061144a565b60405180910390f35b6101656103b4565b600054600160a81b900460ff165b6040519015158152602001610172565b6101656101af366004611479565b6103c1565b6004545b604051908152602001610172565b6101ce6105e2565b6040516001600160a01b039091168152602001610172565b6101f96101f4366004611479565b610655565b6040516101729190611496565b600054600160a01b900460ff16610191565b61022b610226366004611479565b610876565b005b61019161023b366004611479565b60026020526000908152604090205460ff1681565b610165610ae0565b610165610b72565b61019161026e366004611479565b60036020526000908152604090205460ff1681565b61022b610b81565b6000546001600160a01b03166101ce565b6101ce610b95565b610165610bdf565b61022b6102ba3660046115cf565b610bec565b6101b86102cd366004611479565b610d64565b6101f96102e0366004611479565b610f97565b61022b6102f3366004611633565b610fe2565b61022b610306366004611479565b611156565b610191610319366004611479565b6111cf565b610165611204565b60068054610333906116a9565b80601f016020809104026020016040519081016040528092919081815260200182805461035f906116a9565b80156103ac5780601f10610381576101008083540402835291602001916103ac565b820191906000526020600020905b81548152906001019060200180831161038f57829003601f168201915b505050505081565b60058054610333906116a9565b60606103cb6113be565b6001600160a01b03831660009081526001602052604090819020815160e081019092528054829082906103fd906116a9565b80601f0160208091040260200160405190810160405280929190818152602001828054610429906116a9565b80156104765780601f1061044b57610100808354040283529160200191610476565b820191906000526020600020905b81548152906001019060200180831161045957829003601f168201915b5050505050815260200160018201805461048f906116a9565b80601f01602080910402602001604051908101604052809291908181526020018280546104bb906116a9565b80156105085780601f106104dd57610100808354040283529160200191610508565b820191906000526020600020905b8154815290600101906020018083116104eb57829003601f168201915b50505050508152602001600282018054610521906116a9565b80601f016020809104026020016040519081016040528092919081815260200182805461054d906116a9565b801561059a5780601f1061056f5761010080835404028352916020019161059a565b820191906000526020600020905b81548152906001019060200180831161057d57829003601f168201915b5050509183525050600382015460208201526004820154604080830191909152600583015460608301526006909201546001600160a01b031660809091015201519392505050565b600d54604080516338cc483160e01b815290516000926001600160a01b0316916338cc48319160048083019260209291908290030181865afa15801561062c573d6000803e3d6000fd5b505050506040513d601f19601f8201168201806040525081019061065091906116e3565b905090565b61065d6113be565b6106656113be565b6001600160a01b03831660009081526001602052604090819020815160e08101909252805482908290610697906116a9565b80601f01602080910402602001604051908101604052809291908181526020018280546106c3906116a9565b80156107105780601f106106e557610100808354040283529160200191610710565b820191906000526020600020905b8154815290600101906020018083116106f357829003601f168201915b50505050508152602001600182018054610729906116a9565b80601f0160208091040260200160405190810160405280929190818152602001828054610755906116a9565b80156107a25780601f10610777576101008083540402835291602001916107a2565b820191906000526020600020905b81548152906001019060200180831161078557829003601f168201915b505050505081526020016002820180546107bb906116a9565b80601f01602080910402602001604051908101604052809291908181526020018280546107e7906116a9565b80156108345780601f1061080957610100808354040283529160200191610834565b820191906000526020600020905b81548152906001019060200180831161081757829003601f168201915b50505091835250506003820154602082015260048201546040820152600582015460608201526006909101546001600160a01b03166080909101529392505050565b61087e611213565b61088661126d565b61088f816111cf565b6108ce5760405162461bcd60e51b815260206004820152600b60248201526a2727aa20a1a4aa24ad22a760a91b60448201526064015b60405180910390fd5b6001600160a01b0381166000908152600160209081526040918290208251808401909352600883526710d85b98d95b195960c21b91830191909152906002820190610919908261174f565b504260048201556001600160a01b0382166000908152600160205260409020819080610945838261180f565b506001818101906109589084018261180f565b5060028181019061096b9084018261180f565b506003828101549082015560048083015481830155600580840154818401556006938401549390920180546001600160a01b0319166001600160a01b03948516179055600d54918401546040516392c3ad1d60e01b8152918201529116906392c3ad1d906024016020604051808303816000875af11580156109f1573d6000803e3d6000fd5b505050506040513d601f19601f82011682018060405250810190610a1591906118ea565b506001600160a01b038216600090815260016020908152604080832060050183905560029091528120805460ff191690556004805491610a5483611919565b90915550506005810154604080516001600160a01b038516815260208101929092527fe09638b6adefc3d16babaa9578035972cf87303d35f297fa6b029ee1a5e35900910160405180910390a17f78162b8da60444f19c6cfa9bc7ff69398a9d9a9c7c476815d315a0d0b9f7a34a600454604051610ad491815260200190565b60405180910390a15050565b606060058054610aef906116a9565b80601f0160208091040260200160405190810160405280929190818152602001828054610b1b906116a9565b8015610b685780601f10610b3d57610100808354040283529160200191610b68565b820191906000526020600020905b815481529060010190602001808311610b4b57829003601f168201915b5050505050905090565b606060098054610aef906116a9565b610b89611213565b610b9360006112b8565b565b600d5460408051639073d46d60e01b815290516000926001600160a01b031691639073d46d9160048083019260209291908290030181865afa15801561062c573d6000803e3d6000fd5b60078054610333906116a9565b610bf4611308565b610bfc61126d565b33610c06816111cf565b15610c3f5760405162461bcd60e51b815260206004820152600960248201526820a62922a0a22ca4a760b91b60448201526064016108c5565b610c476113be565b610c52828585611355565b6001600160a01b0383166000908152600160205260409020815191925082918190610c7d908261174f565b5060208201516001820190610c92908261174f565b5060408201516002820190610ca7908261174f565b5060608201516003828101919091556080830151600483015560a0830151600583015560c090920151600690910180546001600160a01b0319166001600160a01b0392831617905583811660008181526020939093526040909220805460ff19166001179055600854169003610d2257610d2082610d64565b505b6040516001600160a01b03831681527f4eff2ad875594d1760fb2eaadcd1c0aad55aefd8c25f12f9536cc8d92a67032e9060200160405180910390a150505050565b6000610d6e611213565b610d7661126d565b6001600160a01b0382811660008181526001602052604090819020600d549151635afb611560e01b81526004810193909352921690635afb6115906024016020604051808303816000875af1158015610dd3573d6000803e3d6000fd5b505050506040513d601f19601f82011682018060405250810190610df791906118ea565b600582015560408051808201909152600681526541637469766560d01b60208201526002820190610e28908261174f565b50600481015415610e3b57600060048201555b6001600160a01b0383166000908152600160205260409020819080610e60838261180f565b50600181810190610e739084018261180f565b50600281810190610e869084018261180f565b506003828101548282015560048084015481840155600580850154908401556006938401549390920180546001600160a01b0319166001600160a01b039485161790559185166000908152600260209081526040808320805460ff199081166001179091559490915281208054909316909255805491610f0583611930565b90915550506005810154604080516001600160a01b038616815260208101929092527f04589eebdbebbea0c8dbb3f2ae07a38a0d4b3c800d33de875e131283ff1c97e8910160405180910390a17f78162b8da60444f19c6cfa9bc7ff69398a9d9a9c7c476815d315a0d0b9f7a34a600454604051610f8591815260200190565b60405180910390a16005015492915050565b610f9f6113be565b610fa8826111cf565b61065d5760405162461bcd60e51b815260206004820152600b60248201526a2727aa20a1a4aa24ad22a760a91b60448201526064016108c5565b610fea611308565b610ff261126d565b610ffa611213565b82611004816111cf565b1561103d5760405162461bcd60e51b815260206004820152600960248201526820a62922a0a22ca4a760b91b60448201526064016108c5565b6110456113be565b611050828585611355565b6001600160a01b038316600090815260016020526040902081519192508291819061107b908261174f565b5060208201516001820190611090908261174f565b50604082015160028201906110a5908261174f565b5060608201516003828101919091556080830151600483015560a0830151600583015560c090920151600690910180546001600160a01b0319166001600160a01b039283161790558316600090815260209190915260409020805460ff1916600117905561111282610d64565b506040516001600160a01b03831681527f4eff2ad875594d1760fb2eaadcd1c0aad55aefd8c25f12f9536cc8d92a67032e9060200160405180910390a15050505050565b61115e611213565b6001600160a01b0381166111c35760405162461bcd60e51b815260206004820152602660248201527f4f776e61626c653a206e6577206f776e657220697320746865207a65726f206160448201526564647265737360d01b60648201526084016108c5565b6111cc816112b8565b50565b6001600160a01b03811660009081526002602052604081205460ff1615156001036111fc57506001919050565b506000919050565b6060600a8054610aef906116a9565b6000546001600160a01b03163314610b935760405162461bcd60e51b815260206004820181905260248201527f4f776e61626c653a2063616c6c6572206973206e6f7420746865206f776e657260448201526064016108c5565b600054600160a81b900460ff161515600114610b935760405162461bcd60e51b815260206004820152600a6024820152691393d514d5105495115160b21b60448201526064016108c5565b600080546001600160a01b038381166001600160a01b0319831681178455604051919092169283917f8be0079c531659141344cd1fd0a4f28419497f9722a3daafe3b4186f6b6457e09190a35050565b600054600160a01b900460ff1615610b935760405162461bcd60e51b815260206004820152601060248201526f14185d5cd8589b194e881c185d5cd95960821b60448201526064016108c5565b61135d6113be565b611365611308565b61136d61126d565b6113756113be565b60208181019390935292835250604080518082018252600781526650656e64696e6760c81b928101929092528201524260608201526001600160a01b039190911660c082015290565b6040518060e0016040528060608152602001606081526020016060815260200160008152602001600081526020016000815260200160006001600160a01b031681525090565b6000815180845260005b8181101561142a5760208185018101518683018201520161140e565b506000602082860101526020601f19601f83011685010191505092915050565b60208152600061145d6020830184611404565b9392505050565b6001600160a01b03811681146111cc57600080fd5b60006020828403121561148b57600080fd5b813561145d81611464565b602081526000825160e060208401526114b3610100840182611404565b90506020840151601f19808584030160408601526114d18383611404565b92506040860151915080858403016060860152506114ef8282611404565b91505060608401516080840152608084015160a084015260a084015160c084015260018060a01b0360c08501511660e08401528091505092915050565b634e487b7160e01b600052604160045260246000fd5b600082601f83011261155357600080fd5b813567ffffffffffffffff8082111561156e5761156e61152c565b604051601f8301601f19908116603f011681019082821181831017156115965761159661152c565b816040528381528660208588010111156115af57600080fd5b836020870160208301376000602085830101528094505050505092915050565b600080604083850312156115e257600080fd5b823567ffffffffffffffff808211156115fa57600080fd5b61160686838701611542565b9350602085013591508082111561161c57600080fd5b5061162985828601611542565b9150509250929050565b60008060006060848603121561164857600080fd5b833561165381611464565b9250602084013567ffffffffffffffff8082111561167057600080fd5b61167c87838801611542565b9350604086013591508082111561169257600080fd5b5061169f86828701611542565b9150509250925092565b600181811c908216806116bd57607f821691505b6020821081036116dd57634e487b7160e01b600052602260045260246000fd5b50919050565b6000602082840312156116f557600080fd5b815161145d81611464565b601f82111561174a57600081815260208120601f850160051c810160208610156117275750805b601f850160051c820191505b8181101561174657828155600101611733565b5050505b505050565b815167ffffffffffffffff8111156117695761176961152c565b61177d8161177784546116a9565b84611700565b602080601f8311600181146117b2576000841561179a5750858301515b600019600386901b1c1916600185901b178555611746565b600085815260208120601f198616915b828110156117e1578886015182559484019460019091019084016117c2565b50858210156117ff5787850151600019600388901b60f8161c191681555b5050505050600190811b01905550565b81810361181a575050565b61182482546116a9565b67ffffffffffffffff81111561183c5761183c61152c565b61184a8161177784546116a9565b6000601f82116001811461187e57600083156118665750848201545b600019600385901b1c1916600184901b1784556118e3565b600085815260209020601f19841690600086815260209020845b838110156118b85782860154825560019586019590910190602001611898565b50858310156118d65781850154600019600388901b60f8161c191681555b50505060018360011b0184555b5050505050565b6000602082840312156118fc57600080fd5b5051919050565b634e487b7160e01b600052601160045260246000fd5b60008161192857611928611903565b506000190190565b60006001820161194257611942611903565b506001019056fea264697066735822122060938574a3df301221215e585a07b6bb0e1dbf098fb07a4b5a243a92a957579f64736f6c6343000810003360806040523480156200001157600080fd5b5060405162002cfb38038062002cfb833981016040819052620000349162000239565b6000805460ff19169055620000493362000105565b600380546001600160a01b0319166001600160a01b0383161790556000600455600162000077848262000355565b50600262000086838262000355565b506212d687600855600354604051849184916001600160a01b0390911690620000af906200015e565b620000bd939291906200044f565b604051809103906000f080158015620000da573d6000803e3d6000fd5b50600580546001600160a01b0319166001600160a01b03929092169190911790555062000491915050565b600080546001600160a01b03838116610100818102610100600160a81b0319851617855560405193049190911692909183917f8be0079c531659141344cd1fd0a4f28419497f9722a3daafe3b4186f6b6457e091a35050565b611f318062000dca83390190565b634e487b7160e01b600052604160045260246000fd5b60005b838110156200019f57818101518382015260200162000185565b50506000910152565b600082601f830112620001ba57600080fd5b81516001600160401b0380821115620001d757620001d76200016c565b604051601f8301601f19908116603f011681019082821181831017156200020257620002026200016c565b816040528381528660208588010111156200021c57600080fd5b6200022f84602083016020890162000182565b9695505050505050565b6000806000606084860312156200024f57600080fd5b83516001600160401b03808211156200026757600080fd5b6200027587838801620001a8565b945060208601519150808211156200028c57600080fd5b506200029b86828701620001a8565b604086015190935090506001600160a01b0381168114620002bb57600080fd5b809150509250925092565b600181811c90821680620002db57607f821691505b602082108103620002fc57634e487b7160e01b600052602260045260246000fd5b50919050565b601f8211156200035057600081815260208120601f850160051c810160208610156200032b5750805b601f850160051c820191505b818110156200034c5782815560010162000337565b5050505b505050565b81516001600160401b038111156200037157620003716200016c565b6200038981620003828454620002c6565b8462000302565b602080601f831160018114620003c15760008415620003a85750858301515b600019600386901b1c1916600185901b1785556200034c565b600085815260208120601f198616915b82811015620003f257888601518255948401946001909101908401620003d1565b5085821015620004115787850151600019600388901b60f8161c191681555b5050505050600190811b01905550565b600081518084526200043b81602086016020860162000182565b601f01601f19169290920160200192915050565b60608152600062000464606083018662000421565b828103602084015262000478818662000421565b91505060018060a01b0383166040830152949350505050565b61092980620004a16000396000f3fe608060405234801561001057600080fd5b50600436106101005760003560e01c80638456cb591161009757806392c3ad1d1161006657806392c3ad1d146101bf578063b09f1266146101d2578063d28d8852146101e7578063f2fde38b146101ef57600080fd5b80638456cb591461019057806386b97581146101985780638da5cb5b146101a15780639073d46d146101b757600080fd5b8063593619cc116100d3578063593619cc146101575780635afb61151461015f5780635c975abb14610172578063715018a61461018857600080fd5b8063118dfa3d1461010557806317ba9c4d1461011c57806338cc4831146101475780633f4ba83a1461014d575b600080fd5b6004545b6040519081526020015b60405180910390f35b60055461012f906001600160a01b031681565b6040516001600160a01b039091168152602001610113565b3061012f565b610155610202565b005b610109610214565b61010961016d3660046107cb565b61022a565b60005460ff166040519015158152602001610113565b61015561036f565b610155610381565b61010960045481565b60005461010090046001600160a01b031661012f565b61012f610391565b6101096101cd3660046107ef565b6103ff565b6101da6104cb565b6040516101139190610808565b6101da610559565b6101556101fd3660046107cb565b610566565b61020a6105df565b61021261063f565b565b600061021e6105df565b5060085490565b905090565b60006102346105df565b61023c610691565b6001600160a01b0382166000908152600660205260409020546001116102995760405162461bcd60e51b815260206004820152600d60248201526c414c52454459484156454f4e4560981b60448201526064015b60405180910390fd5b60006102a460085490565b600554604051632851206560e21b81526001600160a01b0386811660048301526024820184905292935091169063a144819490604401600060405180830381600087803b1580156102f457600080fd5b505af1158015610308573d6000803e3d6000fd5b5050506001600160a01b03841660008181526006602090815260408083208690558583526007909152902080546001600160a01b031916909117905550610353600880546001019055565b600480549060006103638361086c565b90915550909392505050565b6103776105df565b61021260006106d7565b6103896105df565b610212610730565b600554604080516338cc483160e01b815290516000926001600160a01b0316916338cc48319160048083019260209291908290030181865afa1580156103db573d6000803e3d6000fd5b505050506040513d601f19601f820116820180604052508101906102259190610885565b60006104096105df565b610411610691565b60055460405163dbf5132560e01b8152600481018490526001600160a01b039091169063dbf5132590602401600060405180830381600087803b15801561045757600080fd5b505af115801561046b573d6000803e3d6000fd5b505050600083815260076020818152604080842080546001600160a01b0316808652600684529185208590558785529290915281546001600160a01b0319169091556004805491935090916104bf836108a2565b90915550929392505050565b600280546104d8906108b9565b80601f0160208091040260200160405190810160405280929190818152602001828054610504906108b9565b80156105515780601f1061052657610100808354040283529160200191610551565b820191906000526020600020905b81548152906001019060200180831161053457829003601f168201915b505050505081565b600180546104d8906108b9565b61056e6105df565b6001600160a01b0381166105d35760405162461bcd60e51b815260206004820152602660248201527f4f776e61626c653a206e6577206f776e657220697320746865207a65726f206160448201526564647265737360d01b6064820152608401610290565b6105dc816106d7565b50565b6000546001600160a01b036101009091041633146102125760405162461bcd60e51b815260206004820181905260248201527f4f776e61626c653a2063616c6c6572206973206e6f7420746865206f776e65726044820152606401610290565b61064761076d565b6000805460ff191690557f5db9ee0a495bf2e6ff9c91a7834c1ba4fdd244a5e8aa4e537bd38aeae4b073aa335b6040516001600160a01b03909116815260200160405180910390a1565b60005460ff16156102125760405162461bcd60e51b815260206004820152601060248201526f14185d5cd8589b194e881c185d5cd95960821b6044820152606401610290565b600080546001600160a01b03838116610100818102610100600160a81b0319851617855560405193049190911692909183917f8be0079c531659141344cd1fd0a4f28419497f9722a3daafe3b4186f6b6457e091a35050565b610738610691565b6000805460ff191660011790557f62e78cea01bee320cd4e420270b5ea74000d11b0c9f74754ebdbfc544b05a2586106743390565b60005460ff166102125760405162461bcd60e51b815260206004820152601460248201527314185d5cd8589b194e881b9bdd081c185d5cd95960621b6044820152606401610290565b6001600160a01b03811681146105dc57600080fd5b6000602082840312156107dd57600080fd5b81356107e8816107b6565b9392505050565b60006020828403121561080157600080fd5b5035919050565b600060208083528351808285015260005b8181101561083557858101830151858201604001528201610819565b506000604082860101526040601f19601f8301168501019250505092915050565b634e487b7160e01b600052601160045260246000fd5b60006001820161087e5761087e610856565b5060010190565b60006020828403121561089757600080fd5b81516107e8816107b6565b6000816108b1576108b1610856565b506000190190565b600181811c908216806108cd57607f821691505b6020821081036108ed57634e487b7160e01b600052602260045260246000fd5b5091905056fea2646970667358221220f4ed377bc11619a5f05d4782aa2fb32e0fce1576e06986664f57e00ca03ff75a64736f6c6343000810003360806040523480156200001157600080fd5b5060405162001f3138038062001f318339810160408190526200003491620001f3565b828260006200004483826200030f565b5060016200005382826200030f565b505050620000706200006a620000d060201b60201c565b620000d4565b600b80546001600160a01b0319166001600160a01b0383161790556040517fa4ff479da0c067cec5ba5aa40c29193a0049ef4c6848b8e7d3db6b0d5ffb81f190620000bf908590859062000409565b60405180910390a15050506200043b565b3390565b600a80546001600160a01b038381166001600160a01b0319831681179093556040519116919082907f8be0079c531659141344cd1fd0a4f28419497f9722a3daafe3b4186f6b6457e090600090a35050565b634e487b7160e01b600052604160045260246000fd5b60005b83811015620001595781810151838201526020016200013f565b50506000910152565b600082601f8301126200017457600080fd5b81516001600160401b038082111562000191576200019162000126565b604051601f8301601f19908116603f01168101908282118183101715620001bc57620001bc62000126565b81604052838152866020858801011115620001d657600080fd5b620001e98460208301602089016200013c565b9695505050505050565b6000806000606084860312156200020957600080fd5b83516001600160401b03808211156200022157600080fd5b6200022f8783880162000162565b945060208601519150808211156200024657600080fd5b50620002558682870162000162565b604086015190935090506001600160a01b03811681146200027557600080fd5b809150509250925092565b600181811c908216806200029557607f821691505b602082108103620002b657634e487b7160e01b600052602260045260246000fd5b50919050565b601f8211156200030a57600081815260208120601f850160051c81016020861015620002e55750805b601f850160051c820191505b818110156200030657828155600101620002f1565b5050505b505050565b81516001600160401b038111156200032b576200032b62000126565b62000343816200033c845462000280565b84620002bc565b602080601f8311600181146200037b5760008415620003625750858301515b600019600386901b1c1916600185901b17855562000306565b600085815260208120601f198616915b82811015620003ac578886015182559484019460019091019084016200038b565b5085821015620003cb5787850151600019600388901b60f8161c191681555b5050505050600190811b01905550565b60008151808452620003f58160208601602086016200013c565b601f01601f19169290920160200192915050565b6040815260006200041e6040830185620003db565b8281036020840152620004328185620003db565b95945050505050565b611ae6806200044b6000396000f3fe608060405234801561001057600080fd5b506004361061014d5760003560e01c80636352211e116100c3578063a22cb4651161007c578063a22cb465146102a0578063b88d4fde146102b3578063c87b56dd146102c6578063dbf51325146102d9578063e985e9c5146102ec578063f2fde38b1461032857600080fd5b80636352211e1461024657806370a0823114610259578063715018a61461026c5780638da5cb5b1461027457806395d89b4114610285578063a14481941461028d57600080fd5b806323b872dd1161011557806323b872dd146101e15780632f745c59146101f457806338cc48311461020757806342842e0e1461020d57806342966c68146102205780634f6ccce71461023357600080fd5b806301ffc9a71461015257806306fdde031461017a578063081812fc1461018f578063095ea7b3146101ba57806318160ddd146101cf575b600080fd5b6101656101603660046115b3565b61033b565b60405190151581526020015b60405180910390f35b61018261034c565b6040516101719190611620565b6101a261019d366004611633565b6103de565b6040516001600160a01b039091168152602001610171565b6101cd6101c8366004611668565b610405565b005b6008545b604051908152602001610171565b6101cd6101ef366004611692565b61051f565b6101d3610202366004611668565b610551565b306101a2565b6101cd61021b366004611692565b6105e7565b6101cd61022e366004611633565b610602565b6101d3610241366004611633565b610633565b6101a2610254366004611633565b6106c6565b6101d36102673660046116ce565b610726565b6101cd6107ac565b600a546001600160a01b03166101a2565b6101826107c0565b6101cd61029b366004611668565b6107cf565b6101cd6102ae3660046116e9565b610837565b6101cd6102c136600461173b565b610842565b6101826102d4366004611633565b61087a565b6101cd6102e7366004611633565b6108ee565b6101656102fa366004611817565b6001600160a01b03918216600090815260056020908152604080832093909416825291909152205460ff1690565b6101cd6103363660046116ce565b6108f6565b60006103468261096c565b92915050565b60606000805461035b9061184a565b80601f01602080910402602001604051908101604052809291908181526020018280546103879061184a565b80156103d45780601f106103a9576101008083540402835291602001916103d4565b820191906000526020600020905b8154815290600101906020018083116103b757829003601f168201915b5050505050905090565b60006103e982610991565b506000908152600460205260409020546001600160a01b031690565b6000610410826106c6565b9050806001600160a01b0316836001600160a01b0316036104825760405162461bcd60e51b815260206004820152602160248201527f4552433732313a20617070726f76616c20746f2063757272656e74206f776e656044820152603960f91b60648201526084015b60405180910390fd5b336001600160a01b038216148061049e575061049e81336102fa565b6105105760405162461bcd60e51b815260206004820152603d60248201527f4552433732313a20617070726f76652063616c6c6572206973206e6f7420746f60448201527f6b656e206f776e6572206f7220617070726f76656420666f7220616c6c0000006064820152608401610479565b61051a83836109f0565b505050565b61052a335b82610a5e565b6105465760405162461bcd60e51b815260040161047990611884565b61051a838383610add565b600061055c83610726565b82106105be5760405162461bcd60e51b815260206004820152602b60248201527f455243373231456e756d657261626c653a206f776e657220696e646578206f7560448201526a74206f6620626f756e647360a81b6064820152608401610479565b506001600160a01b03919091166000908152600660209081526040808320938352929052205490565b61051a83838360405180602001604052806000815250610842565b61060b33610524565b6106275760405162461bcd60e51b815260040161047990611884565b61063081610c4c565b50565b600061063e60085490565b82106106a15760405162461bcd60e51b815260206004820152602c60248201527f455243373231456e756d657261626c653a20676c6f62616c20696e646578206f60448201526b7574206f6620626f756e647360a01b6064820152608401610479565b600882815481106106b4576106b46118d1565b90600052602060002001549050919050565b6000818152600260205260408120546001600160a01b0316806103465760405162461bcd60e51b8152602060048201526018602482015277115490cdcc8c4e881a5b9d985b1a59081d1bdad95b88125160421b6044820152606401610479565b60006001600160a01b0382166107905760405162461bcd60e51b815260206004820152602960248201527f4552433732313a2061646472657373207a65726f206973206e6f7420612076616044820152683634b21037bbb732b960b91b6064820152608401610479565b506001600160a01b031660009081526003602052604090205490565b6107b4610c5d565b6107be6000610cb7565b565b60606001805461035b9061184a565b6107d7610c5d565b60016107e283610726565b1061081f5760405162461bcd60e51b815260206004820152600d60248201526c414c52454459484156454f4e4560981b6044820152606401610479565b6108298282610d09565b61083333826109f0565b5050565b610833338383610d23565b61084c3383610a5e565b6108685760405162461bcd60e51b815260040161047990611884565b61087484848484610df1565b50505050565b606061088582610991565b600061089c60408051602081019091526000815290565b905060008151116108bc57604051806020016040528060008152506108e7565b806108c684610e24565b6040516020016108d79291906118e7565b6040516020818303038152906040525b9392505050565b610627610c5d565b6108fe610c5d565b6001600160a01b0381166109635760405162461bcd60e51b815260206004820152602660248201527f4f776e61626c653a206e6577206f776e657220697320746865207a65726f206160448201526564647265737360d01b6064820152608401610479565b61063081610cb7565b60006001600160e01b0319821663780e9d6360e01b1480610346575061034682610f25565b6000818152600260205260409020546001600160a01b03166106305760405162461bcd60e51b8152602060048201526018602482015277115490cdcc8c4e881a5b9d985b1a59081d1bdad95b88125160421b6044820152606401610479565b600081815260046020526040902080546001600160a01b0319166001600160a01b0384169081179091558190610a25826106c6565b6001600160a01b03167f8c5be1e5ebec7d5bd14f71427d1e84f3dd0314c0f7b2291e5b200ac8c7c3b92560405160405180910390a45050565b600080610a6a836106c6565b9050806001600160a01b0316846001600160a01b03161480610ab157506001600160a01b0380821660009081526005602090815260408083209388168352929052205460ff165b80610ad55750836001600160a01b0316610aca846103de565b6001600160a01b0316145b949350505050565b826001600160a01b0316610af0826106c6565b6001600160a01b031614610b165760405162461bcd60e51b815260040161047990611916565b6001600160a01b038216610b785760405162461bcd60e51b8152602060048201526024808201527f4552433732313a207472616e7366657220746f20746865207a65726f206164646044820152637265737360e01b6064820152608401610479565b610b83838383610f75565b826001600160a01b0316610b96826106c6565b6001600160a01b031614610bbc5760405162461bcd60e51b815260040161047990611916565b600081815260046020908152604080832080546001600160a01b03199081169091556001600160a01b0387811680865260038552838620805460001901905590871680865283862080546001019055868652600290945282852080549092168417909155905184937fddf252ad1be2c89b69c2b068fc378daa952ba7f163c4a11628f55a4df523b3ef91a4505050565b610c54610c5d565b61063081610fe9565b600a546001600160a01b031633146107be5760405162461bcd60e51b815260206004820181905260248201527f4f776e61626c653a2063616c6c6572206973206e6f7420746865206f776e65726044820152606401610479565b600a80546001600160a01b038381166001600160a01b0319831681179093556040519116919082907f8be0079c531659141344cd1fd0a4f28419497f9722a3daafe3b4186f6b6457e090600090a35050565b61083382826040518060200160405280600081525061108a565b816001600160a01b0316836001600160a01b031603610d845760405162461bcd60e51b815260206004820152601960248201527f4552433732313a20617070726f766520746f2063616c6c6572000000000000006044820152606401610479565b6001600160a01b03838116600081815260056020908152604080832094871680845294825291829020805460ff191686151590811790915591519182527f17307eab39ab6107e8899845ad3d59bd9653f200f220920489ca2b5937696c31910160405180910390a3505050565b610dfc848484610add565b610e08848484846110bd565b6108745760405162461bcd60e51b81526004016104799061195b565b606081600003610e4b5750506040805180820190915260018152600360fc1b602082015290565b8160005b8115610e755780610e5f816119c3565b9150610e6e9050600a836119f2565b9150610e4f565b60008167ffffffffffffffff811115610e9057610e90611725565b6040519080825280601f01601f191660200182016040528015610eba576020820181803683370190505b5090505b8415610ad557610ecf600183611a06565b9150610edc600a86611a19565b610ee7906030611a2d565b60f81b818381518110610efc57610efc6118d1565b60200101906001600160f81b031916908160001a905350610f1e600a866119f2565b9450610ebe565b60006001600160e01b031982166380ac58cd60e01b1480610f5657506001600160e01b03198216635b5e139f60e01b145b8061034657506301ffc9a760e01b6001600160e01b0319831614610346565b6001600160a01b0383161580610f9257506001600160a01b038216155b610fde5760405162461bcd60e51b815260206004820152601b60248201527f4e6f6e5472616e736665727261626c65455243373231546f6b656e00000000006044820152606401610479565b61051a8383836111be565b6000610ff4826106c6565b905061100281600084610f75565b61100b826106c6565b600083815260046020908152604080832080546001600160a01b03199081169091556001600160a01b0385168085526003845282852080546000190190558785526002909352818420805490911690555192935084927fddf252ad1be2c89b69c2b068fc378daa952ba7f163c4a11628f55a4df523b3ef908390a45050565b6110948383611276565b6110a160008484846110bd565b61051a5760405162461bcd60e51b81526004016104799061195b565b60006001600160a01b0384163b156111b357604051630a85bd0160e11b81526001600160a01b0385169063150b7a0290611101903390899088908890600401611a40565b6020604051808303816000875af192505050801561113c575060408051601f3d908101601f1916820190925261113991810190611a7d565b60015b611199573d80801561116a576040519150601f19603f3d011682016040523d82523d6000602084013e61116f565b606091505b5080516000036111915760405162461bcd60e51b81526004016104799061195b565b805181602001fd5b6001600160e01b031916630a85bd0160e11b149050610ad5565b506001949350505050565b6001600160a01b0383166112195761121481600880546000838152600960205260408120829055600182018355919091527ff3f7a9fe364faab93b216da50a3214154f22a0a2b415b23a84c8169e8b636ee30155565b61123c565b816001600160a01b0316836001600160a01b03161461123c5761123c838261140d565b6001600160a01b0382166112535761051a816114aa565b826001600160a01b0316826001600160a01b03161461051a5761051a8282611559565b6001600160a01b0382166112cc5760405162461bcd60e51b815260206004820181905260248201527f4552433732313a206d696e7420746f20746865207a65726f20616464726573736044820152606401610479565b6000818152600260205260409020546001600160a01b0316156113315760405162461bcd60e51b815260206004820152601c60248201527f4552433732313a20746f6b656e20616c7265616479206d696e746564000000006044820152606401610479565b61133d60008383610f75565b6000818152600260205260409020546001600160a01b0316156113a25760405162461bcd60e51b815260206004820152601c60248201527f4552433732313a20746f6b656e20616c7265616479206d696e746564000000006044820152606401610479565b6001600160a01b038216600081815260036020908152604080832080546001019055848352600290915280822080546001600160a01b0319168417905551839291907fddf252ad1be2c89b69c2b068fc378daa952ba7f163c4a11628f55a4df523b3ef908290a45050565b6000600161141a84610726565b6114249190611a06565b600083815260076020526040902054909150808214611477576001600160a01b03841660009081526006602090815260408083208584528252808320548484528184208190558352600790915290208190555b5060009182526007602090815260408084208490556001600160a01b039094168352600681528383209183525290812055565b6008546000906114bc90600190611a06565b600083815260096020526040812054600880549394509092849081106114e4576114e46118d1565b906000526020600020015490508060088381548110611505576115056118d1565b600091825260208083209091019290925582815260099091526040808220849055858252812055600880548061153d5761153d611a9a565b6001900381819060005260206000200160009055905550505050565b600061156483610726565b6001600160a01b039093166000908152600660209081526040808320868452825280832085905593825260079052919091209190915550565b6001600160e01b03198116811461063057600080fd5b6000602082840312156115c557600080fd5b81356108e78161159d565b60005b838110156115eb5781810151838201526020016115d3565b50506000910152565b6000815180845261160c8160208601602086016115d0565b601f01601f19169290920160200192915050565b6020815260006108e760208301846115f4565b60006020828403121561164557600080fd5b5035919050565b80356001600160a01b038116811461166357600080fd5b919050565b6000806040838503121561167b57600080fd5b6116848361164c565b946020939093013593505050565b6000806000606084860312156116a757600080fd5b6116b08461164c565b92506116be6020850161164c565b9150604084013590509250925092565b6000602082840312156116e057600080fd5b6108e78261164c565b600080604083850312156116fc57600080fd5b6117058361164c565b91506020830135801515811461171a57600080fd5b809150509250929050565b634e487b7160e01b600052604160045260246000fd5b6000806000806080858703121561175157600080fd5b61175a8561164c565b93506117686020860161164c565b925060408501359150606085013567ffffffffffffffff8082111561178c57600080fd5b818701915087601f8301126117a057600080fd5b8135818111156117b2576117b2611725565b604051601f8201601f19908116603f011681019083821181831017156117da576117da611725565b816040528281528a60208487010111156117f357600080fd5b82602086016020830137600060208483010152809550505050505092959194509250565b6000806040838503121561182a57600080fd5b6118338361164c565b91506118416020840161164c565b90509250929050565b600181811c9082168061185e57607f821691505b60208210810361187e57634e487b7160e01b600052602260045260246000fd5b50919050565b6020808252602d908201527f4552433732313a2063616c6c6572206973206e6f7420746f6b656e206f776e6560408201526c1c881bdc88185c1c1c9bdd9959609a1b606082015260800190565b634e487b7160e01b600052603260045260246000fd5b600083516118f98184602088016115d0565b83519083019061190d8183602088016115d0565b01949350505050565b60208082526025908201527f4552433732313a207472616e736665722066726f6d20696e636f72726563742060408201526437bbb732b960d91b606082015260800190565b60208082526032908201527f4552433732313a207472616e7366657220746f206e6f6e20455243373231526560408201527131b2b4bb32b91034b6b83632b6b2b73a32b960711b606082015260800190565b634e487b7160e01b600052601160045260246000fd5b6000600182016119d5576119d56119ad565b5060010190565b634e487b7160e01b600052601260045260246000fd5b600082611a0157611a016119dc565b500490565b81810381811115610346576103466119ad565b600082611a2857611a286119dc565b500690565b80820180821115610346576103466119ad565b6001600160a01b0385811682528416602082015260408101839052608060608201819052600090611a73908301846115f4565b9695505050505050565b600060208284031215611a8f57600080fd5b81516108e78161159d565b634e487b7160e01b600052603160045260246000fdfea26469706673582212204c65af485886823ac24fef9dc2de0b7b027f7ce687ff9aee220889a9eee4a23d64736f6c63430008100033",
    "linkReferences": {}
  },
  "methodIdentifiers": {
    "addToCity(address,string,string)": "e49dfda4",
    "agreeCitizenship(address)": "c4e415e0",
    "cityname()": "1d0a6587",
    "getCitizenInfos(address)": "dae5df0e",
    "getCitizenStatut(address)": "21069b8e",
    "getCityName()": "62fbbf7f",
    "getEtatCivilAddress()": "278b46c4",
    "getPassportAddress()": "9073d46d",
    "getPassportName()": "6b87c562",
    "getPassportSymbol()": "fb7e1ee3",
    "getRegistryInfos(address)": "2d16475e",
    "isCitizen(address)": "f3caad03",
    "joinCity(string,string)": "b18d1029",
    "name()": "06fdde03",
    "owner()": "8da5cb5b",
    "paused()": "5c975abb",
    "population(address)": "62dca47d",
    "renounceOwnership()": "715018a6",
    "revokeCitizenship(address)": "6228283a",
    "started()": "1f2698ab",
    "symbol()": "95d89b41",
    "totalPopulation()": "25d85e12",
    "transferOwnership(address)": "f2fde38b",
    "waitingPopulation(address)": "6e5f768d"
  },
  "id": 21
}